:1000000000308A00212800002C308400831300086F
:10001000031918280130F800F701F70B0D28F80B29
:100020000C284A30F700F70B13281628800B0A28F3
:100030000800AB01AF01AE01AD01AC018A110A129B
:100040007E2803081F398300613083168F009001DA
:100050000F088312A001A401A301A201A101FF3096
:10006000AA00831603170908C039890003131F1259
:100070009F120030031788008312870188018901CD
:10008000831301300313A5000230A6000330A7003C
:100090000430A8000530A900003083168600FF3028
:1000A0008500503087008312AA0083160610831241
:1000B00006100230AB00FA30AC000420AB0B5B281A
:1000C00083160610831206140230AB00FA30AC001F
:1000D0000420AB0B662886168613FF30860094300A
:1000E00086008316861002308312860685197828CA
:0E00F000051C7A287A287B287C2819286300B2
:04400E00E42FFF3F5D
:00000001FF
;PIC16F887
;CRC=F321  CREATED="08-feb.-21 20:58"
